{
  "_format": "hh-sol-artifact-1",
  "contractName": "HerbRegistry",
  "sourceName": "contracts/HerbRegistry.sol",
  "abi": [
    {
      "anonymous": false,
      "inputs": [
        {
          "indexed": true,
          "internalType": "bytes32",
          "name": "batchId",
          "type": "bytes32"
        },
        {
          "indexed": true,
          "internalType": "address",
          "name": "owner",
          "type": "address"
        },
        {
          "indexed": false,
          "internalType": "string",
          "name": "metadataURI",
          "type": "string"
        }
      ],
      "name": "BatchCreated",
      "type": "event"
    },
    {
      "anonymous": false,
      "inputs": [
        {
          "indexed": true,
          "internalType": "bytes32",
          "name": "batchId",
          "type": "bytes32"
        },
        {
          "indexed": false,
          "internalType": "string",
          "name": "actor",
          "type": "string"
        },
        {
          "indexed": false,
          "internalType": "string",
          "name": "data",
          "type": "string"
        }
      ],
      "name": "BatchUpdated",
      "type": "event"
    },
    {
      "anonymous": false,
      "inputs": [
        {
          "indexed": true,
          "internalType": "bytes32",
          "name": "batchId",
          "type": "bytes32"
        },
        {
          "indexed": true,
          "internalType": "address",
          "name": "from",
          "type": "address"
        },
        {
          "indexed": true,
          "internalType": "address",
          "name": "to",
          "type": "address"
        }
      ],
      "name": "OwnershipTransferred",
      "type": "event"
    },
    {
      "inputs": [
        {
          "internalType": "string",
          "name": "batchIdStr",
          "type": "string"
        },
        {
          "internalType": "string",
          "name": "actor",
          "type": "string"
        },
        {
          "internalType": "string",
          "name": "data",
          "type": "string"
        }
      ],
      "name": "addEvent",
      "outputs": [],
      "stateMutability": "nonpayable",
      "type": "function"
    },
    {
      "inputs": [
        {
          "internalType": "uint256",
          "name": "",
          "type": "uint256"
        }
      ],
      "name": "batchIds",
      "outputs": [
        {
          "internalType": "bytes32",
          "name": "",
          "type": "bytes32"
        }
      ],
      "stateMutability": "view",
      "type": "function"
    },
    {
      "inputs": [
        {
          "internalType": "string",
          "name": "batchIdStr",
          "type": "string"
        },
        {
          "internalType": "string",
          "name": "metadataURI",
          "type": "string"
        }
      ],
      "name": "createBatch",
      "outputs": [],
      "stateMutability": "nonpayable",
      "type": "function"
    },
    {
      "inputs": [
        {
          "internalType": "string",
          "name": "batchIdStr",
          "type": "string"
        }
      ],
      "name": "getBatchEvents",
      "outputs": [
        {
          "components": [
            {
              "internalType": "uint256",
              "name": "timestamp",
              "type": "uint256"
            },
            {
              "internalType": "string",
              "name": "actor",
              "type": "string"
            },
            {
              "internalType": "string",
              "name": "data",
              "type": "string"
            }
          ],
          "internalType": "struct HerbRegistry.Event[]",
          "name": "",
          "type": "tuple[]"
        }
      ],
      "stateMutability": "view",
      "type": "function"
    },
    {
      "inputs": [
        {
          "internalType": "string",
          "name": "batchIdStr",
          "type": "string"
        }
      ],
      "name": "getBatchMetadata",
      "outputs": [
        {
          "internalType": "string",
          "name": "",
          "type": "string"
        }
      ],
      "stateMutability": "view",
      "type": "function"
    },
    {
      "inputs": [
        {
          "internalType": "string",
          "name": "batchIdStr",
          "type": "string"
        }
      ],
      "name": "getBatchOwner",
      "outputs": [
        {
          "internalType": "address",
          "name": "",
          "type": "address"
        }
      ],
      "stateMutability": "view",
      "type": "function"
    },
    {
      "inputs": [
        {
          "internalType": "string",
          "name": "batchIdStr",
          "type": "string"
        },
        {
          "internalType": "address",
          "name": "newOwner",
          "type": "address"
        }
      ],
      "name": "transferOwnership",
      "outputs": [],
      "stateMutability": "nonpayable",
      "type": "function"
    }
  ],
  "bytecode": "0x608060405234801561001057600080fd5b5061174c806100206000396000f3fe608060405234801561001057600080fd5b506004361061007d5760003560e01c8063afc744c71161005b578063afc744c7146100ea578063b3d346b91461011a578063c0e793c21461014a578063c3c8529d146101665761007d565b80634f3900b01461008257806392b8f0211461009e578063971f1003146100ba575b600080fd5b61009c60048036038101906100979190610bbf565b610196565b005b6100b860048036038101906100b39190610c73565b6103f6565b005b6100d460048036038101906100cf9190610cf4565b6105bf565b6040516100e19190610dd1565b60405180910390f35b61010460048036038101906100ff9190610cf4565b610695565b6040516101119190610f6f565b60405180910390f35b610134600480360381019061012f9190610fbd565b610866565b6040516101419190611003565b60405180910390f35b610164600480360381019061015f919061107c565b61088a565b005b610180600480360381019061017b9190610cf4565b610ae3565b60405161018d91906110eb565b60405180910390f35b85856040516020016101a9929190611145565b604051602081830303815290604052805190602001203373ffffffffffffffffffffffffffffffffffffffff1660008083815260200190815260200160002060010160009054906101000a900473ffffffffffffffffffffffffffffffffffffffff1673ffffffffffffffffffffffffffffffffffffffff1614610262576040517f08c379a0000000000000000000000000000000000000000000000000000000008152600401610259906111aa565b60405180910390fd5b60008787604051602001610277929190611145565b6040516020818303038152906040528051906020012090506000806000838152602001908152602001600020905080600301604051806060016040528042815260200189898080601f016020809104026020016040519081016040528093929190818152602001838380828437600081840152601f19601f82011690508083019250505050505050815260200187878080601f016020809104026020016040519081016040528093929190818152602001838380828437600081840152601f19601f8201169050808301925050505050505081525090806001815401808255809150506001900390600052602060002090600302016000909190919091506000820151816000015560208201518160010190816103949190611405565b5060408201518160020190816103aa9190611405565b505050817fe2dbfb2c0241cd5b56c92d6aaadbc3cd8b17ec6dff50435341046ec9d6d85209888888886040516103e39493929190611504565b60405180910390a2505050505050505050565b6000848460405160200161040b929190611145565b604051602081830303815290604052805190602001209050600073ffffffffffffffffffffffffffffffffffffffff1660008083815260200190815260200160002060010160009054906101000a900473ffffffffffffffffffffffffffffffffffffffff1673ffffffffffffffffffffffffffffffffffffffff16146104c7576040517f08c379a00000000000000000000000000000000000000000000000000000000081526004016104be9061158b565b60405180910390fd5b60008060008381526020019081526020016000209050818160000181905550338160010160006101000a81548173ffffffffffffffffffffffffffffffffffffffff021916908373ffffffffffffffffffffffffffffffffffffffff160217905550838382600201918261053c9291906115b6565b5060018290806001815401808255809150506001900390600052602060002001600090919091909150553373ffffffffffffffffffffffffffffffffffffffff16827f85ae3272c4c0d9853bff19915074258fcd0c09af3de77705b3b4fbd0639b78f286866040516105af929190611686565b60405180910390a3505050505050565b6060600083836040516020016105d6929190611145565b604051602081830303815290604052805190602001209050600080828152602001908152602001600020600201805461060e90611228565b80601f016020809104026020016040519081016040528092919081815260200182805461063a90611228565b80156106875780601f1061065c57610100808354040283529160200191610687565b820191906000526020600020905b81548152906001019060200180831161066a57829003601f168201915b505050505091505092915050565b6060600083836040516020016106ac929190611145565b604051602081830303815290604052805190602001209050600080828152602001908152602001600020600301805480602002602001604051908101604052809291908181526020016000905b8282101561085957838290600052602060002090600302016040518060600160405290816000820154815260200160018201805461073690611228565b80601f016020809104026020016040519081016040528092919081815260200182805461076290611228565b80156107af5780601f10610784576101008083540402835291602001916107af565b820191906000526020600020905b81548152906001019060200180831161079257829003601f168201915b505050505081526020016002820180546107c890611228565b80601f01602080910402602001604051908101604052809291908181526020018280546107f490611228565b80156108415780601f1061081657610100808354040283529160200191610841565b820191906000526020600020905b81548152906001019060200180831161082457829003601f168201915b505050505081525050815260200190600101906106f9565b5050505091505092915050565b6001818154811061087657600080fd5b906000526020600020016000915090505481565b828260405160200161089d929190611145565b604051602081830303815290604052805190602001203373ffffffffffffffffffffffffffffffffffffffff1660008083815260200190815260200160002060010160009054906101000a900473ffffffffffffffffffffffffffffffffffffffff1673ffffffffffffffffffffffffffffffffffffffff1614610956576040517f08c379a000000000000000000000000000000000000000000000000000000000815260040161094d906111aa565b60405180910390fd5b6000848460405160200161096b929190611145565b604051602081830303815290604052805190602001209050600073ffffffffffffffffffffffffffffffffffffffff168373ffffffffffffffffffffffffffffffffffffffff16036109f2576040517f08c379a00000000000000000000000000000000000000000000000000000000081526004016109e9906116f6565b60405180910390fd5b600080600083815260200190815260200160002060010160009054906101000a900473ffffffffffffffffffffffffffffffffffffffff1690508360008084815260200190815260200160002060010160006101000a81548173ffffffffffffffffffffffffffffffffffffffff021916908373ffffffffffffffffffffffffffffffffffffffff1602179055508373ffffffffffffffffffffffffffffffffffffffff168173ffffffffffffffffffffffffffffffffffffffff16837f0b659dccc8eb950324170e8d9598af5ee04ee070883eb28651a96788721fbf8360405160405180910390a4505050505050565b6000808383604051602001610af9929190611145565b60405160208183030381529060405280519060200120905060008082815260200190815260200160002060010160009054906101000a900473ffffffffffffffffffffffffffffffffffffffff1691505092915050565b600080fd5b600080fd5b600080fd5b600080fd5b600080fd5b60008083601f840112610b7f57610b7e610b5a565b5b8235905067ffffffffffffffff811115610b9c57610b9b610b5f565b5b602083019150836001820283011115610bb857610bb7610b64565b5b9250929050565b60008060008060008060608789031215610bdc57610bdb610b50565b5b600087013567ffffffffffffffff811115610bfa57610bf9610b55565b5b610c0689828a01610b69565b9650965050602087013567ffffffffffffffff811115610c2957610c28610b55565b5b610c3589828a01610b69565b9450945050604087013567ffffffffffffffff811115610c5857610c57610b55565b5b610c6489828a01610b69565b92509250509295509295509295565b60008060008060408587031215610c8d57610c8c610b50565b5b600085013567ffffffffffffffff811115610cab57610caa610b55565b5b610cb787828801610b69565b9450945050602085013567ffffffffffffffff811115610cda57610cd9610b55565b5b610ce687828801610b69565b925092505092959194509250565b60008060208385031215610d0b57610d0a610b50565b5b600083013567ffffffffffffffff811115610d2957610d28610b55565b5b610d3585828601610b69565b92509250509250929050565b600081519050919050565b600082825260208201905092915050565b60005b83811015610d7b578082015181840152602081019050610d60565b60008484015250505050565b6000601f19601f8301169050919050565b6000610da382610d41565b610dad8185610d4c565b9350610dbd818560208601610d5d565b610dc681610d87565b840191505092915050565b60006020820190508181036000830152610deb8184610d98565b905092915050565b600081519050919050565b600082825260208201905092915050565b6000819050602082019050919050565b6000819050919050565b610e3281610e1f565b82525050565b600082825260208201905092915050565b6000610e5482610d41565b610e5e8185610e38565b9350610e6e818560208601610d5d565b610e7781610d87565b840191505092915050565b6000606083016000830151610e9a6000860182610e29565b5060208301518482036020860152610eb28282610e49565b91505060408301518482036040860152610ecc8282610e49565b9150508091505092915050565b6000610ee58383610e82565b905092915050565b6000602082019050919050565b6000610f0582610df3565b610f0f8185610dfe565b935083602082028501610f2185610e0f565b8060005b85811015610f5d5784840389528151610f3e8582610ed9565b9450610f4983610eed565b925060208a01995050600181019050610f25565b50829750879550505050505092915050565b60006020820190508181036000830152610f898184610efa565b905092915050565b610f9a81610e1f565b8114610fa557600080fd5b50565b600081359050610fb781610f91565b92915050565b600060208284031215610fd357610fd2610b50565b5b6000610fe184828501610fa8565b91505092915050565b6000819050919050565b610ffd81610fea565b82525050565b60006020820190506110186000830184610ff4565b92915050565b600073ffffffffffffffffffffffffffffffffffffffff82169050919050565b60006110498261101e565b9050919050565b6110598161103e565b811461106457600080fd5b50565b60008135905061107681611050565b92915050565b60008060006040848603121561109557611094610b50565b5b600084013567ffffffffffffffff8111156110b3576110b2610b55565b5b6110bf86828701610b69565b935093505060206110d286828701611067565b9150509250925092565b6110e58161103e565b82525050565b600060208201905061110060008301846110dc565b92915050565b600081905092915050565b82818337600083830152505050565b600061112c8385611106565b9350611139838584611111565b82840190509392505050565b6000611152828486611120565b91508190509392505050565b7f4e6f74206261746368206f776e65720000000000000000000000000000000000600082015250565b6000611194600f83610d4c565b915061119f8261115e565b602082019050919050565b600060208201905081810360008301526111c381611187565b9050919050565b7f4e487b7100000000000000000000000000000000000000000000000000000000600052604160045260246000fd5b7f4e487b7100000000000000000000000000000000000000000000000000000000600052602260045260246000fd5b6000600282049050600182168061124057607f821691505b602082108103611253576112526111f9565b5b50919050565b60008190508160005260206000209050919050565b60006020601f8301049050919050565b600082821b905092915050565b6000600883026112bb7fffffffffffffffffffffffffffffffffffffffffffffffffffffffffffffffff8261127e565b6112c5868361127e565b95508019841693508086168417925050509392505050565b6000819050919050565b60006113026112fd6112f884610e1f565b6112dd565b610e1f565b9050919050565b6000819050919050565b61131c836112e7565b61133061132882611309565b84845461128b565b825550505050565b600090565b611345611338565b611350818484611313565b505050565b5b818110156113745761136960008261133d565b600181019050611356565b5050565b601f8211156113b95761138a81611259565b6113938461126e565b810160208510156113a2578190505b6113b66113ae8561126e565b830182611355565b50505b505050565b600082821c905092915050565b60006113dc600019846008026113be565b1980831691505092915050565b60006113f583836113cb565b9150826002028217905092915050565b61140e82610d41565b67ffffffffffffffff811115611427576114266111ca565b5b6114318254611228565b61143c828285611378565b600060209050601f83116001811461146f576000841561145d578287015190505b61146785826113e9565b8655506114cf565b601f19841661147d86611259565b60005b828110156114a557848901518255600182019150602085019450602081019050611480565b868310156114c257848901516114be601f8916826113cb565b8355505b6001600288020188555050505b505050505050565b60006114e38385610d4c565b93506114f0838584611111565b6114f983610d87565b840190509392505050565b6000604082019050818103600083015261151f8186886114d7565b905081810360208301526115348184866114d7565b905095945050505050565b7f426174636820616c726561647920657869737473000000000000000000000000600082015250565b6000611575601483610d4c565b91506115808261153f565b602082019050919050565b600060208201905081810360008301526115a481611568565b9050919050565b600082905092915050565b6115c083836115ab565b67ffffffffffffffff8111156115d9576115d86111ca565b5b6115e38254611228565b6115ee828285611378565b6000601f83116001811461161d576000841561160b578287013590505b61161585826113e9565b86555061167d565b601f19841661162b86611259565b60005b828110156116535784890135825560018201915060208501945060208101905061162e565b86831015611670578489013561166c601f8916826113cb565b8355505b6001600288020188555050505b50505050505050565b600060208201905081810360008301526116a18184866114d7565b90509392505050565b7f496e76616c6964206e6577206f776e6572000000000000000000000000000000600082015250565b60006116e0601183610d4c565b91506116eb826116aa565b602082019050919050565b6000602082019050818103600083015261170f816116d3565b905091905056fea2646970667358221220320419f59f262d8c51f5a3938cfe9a0915047101bcad5e1ecb899c3bbfe1a1d764736f6c63430008140033",
  "linkReferences": {},
  "deployedLinkReferences": {}
}